:020000040800F2
:1000000000500020D91E0008D91D0008DF1D00087F
:10001000E51D0008EB1D0008F11D000800000000B0
:10002000000000000000000000000000F71D0008B4
:10003000031E0008000000000F1E00081B1E000821
:10004000211F0008211F0008211F0008211F000890
:10005000211F0008211F0008211F0008211F000880
:10006000211F0008211F0008211F0008211F000870
:10007000211F0008211F0008211F0008211F000860
:10008000211F0008211F0008211F0008211F000850
:10009000211F0008211F0008211F0008211F000840
:1000A000211F0008211F0008211F0008211F000830
:1000B000291E0008211F0008211F0008211F000819
:1000C000211F0008211F0008211F0008211F000810
:1000D000211F0008211F0008211F0008211F000800
:1000E000211F0008211F0008211F00080000000038
:1000F0000000000000000000000000000000000000
:0C01000000000000000000005FF808F1A3
:10010C0010B5054C237833B9044B13B10448AFF345
:10011C0000800123237010BD7C0000200000000033
:10012C008049000808B5034B1BB103490348AFF3E2
:10013C00008008BD000000008000002080490008FD
:10014C0080B400AF00BFBD4680BC704780B400AF28
:10015C0000BFBD4680BC704780B582B000AF0023A5
:10016C00FB7106E0FB79184600F022F9FB790133AC
:10017C00FB71FB79272BF5D9054B00221A70FFF781
:10018C00DFFFFFF7E3FF00BF0837BD4680BD00BFB0
:10019C009800002080B483B000AF0023FB715CE0BA
:1001AC00FA79324913469B0013449B000B441B689D
:1001BC00002B4FD0FA792D4913469B0013449B001A
:1001CC000B4404331B68002B32D1FA7927491346B0
:1001DC009B0013449B000B440C331B78FA790133BE
:1001EC00D8B2224913469B0013449B000B440C339A
:1001FC0002461A70FA791D4913469B0013449B0062
:10020C000B4408331B68002B24D0F979FA79174872
:10021C000B469B000B449B0003440833196813489E
:10022C0013469B0013449B0003440433196011E0F4
:10023C00FA790E4913469B0013449B000B4404337C
:10024C001B68591E094813469B0013449B0003442A
:10025C0004331960FB790133FB71FB79272B9FD990
:10026C0000BF00BF0C37BD4680BC70471401002096
:10027C0080B487B000AFF860B9607A600023FB757A
:10028C0002E0FB7D0133FB75FA7D204913469B0090
:10029C0013449B000B441B68002B02D0FB7D272BC7
:1002AC00EFD9FB7D282B04D1194B01221A7028237E
:1002BC0027E0FA7D154913469B0013449B000B4421
:1002CC00FA681A60FA7D114913469B0013449B008F
:1002DC000B440433BA681A60FA7D0C4913469B0030
:1002EC0013449B000B4408337A681A60FA7D074963
:1002FC0013469B0013449B000B440C3300221A70D2
:10030C00FB7D18461C37BD4680BC7047140100208D
:10031C009800002080B582B000AF0023FB7139E05B
:10032C00FA79224913469B0013449B000B440C336F
:10033C001B78002B2BD0FA791C4913469B001344D5
:10034C009B000B441B689847FA79184913469B008D
:10035C0013449B000B440C331B78013BD8B213495C
:10036C0013469B0013449B000B440C3302461A703B
:10037C00FA790E4913469B0013449B000B44083337
:10038C001B68002B03D1FB79184600F011F8FB79A0
:10039C000133FB71FB79272BC2D900F057F800F021
:1003AC004FF800BF0837BD4680BD00BF14010020C8
:1003BC0080B485B000AF78601F497A6813469B0003
:1003CC0013449B000B441B68002B05D11B4B0822CC
:1003DC001A700923FB7301E00A23FB7316497A6830
:1003EC0013469B0013449B000B4400221A601249D5
:1003FC007A6813469B0013449B000B440433002281
:10040C001A600D497A6813469B0013449B000B44F9
:10041C00083300221A6008497A6813469B0013447B
:10042C009B000B440C3300221A70FB7B18461437CC
:10043C00BD4680BC704700BF14010020980000200E
:10044C0080B400AF00BFBD4680BC704780B400AF25
:10045C0000BFBD4680BC704780B588B000AF00F0CF
:10046C00F5FE0346012B40F0AF80594B1B68012B66
:10047C0026D107F110035749184603F041FE3B46BD
:10048C005549184603F03CFE0021012000F08DFD7B
:10049C003B46184600F074FD0021022000F085FD5B
:1004AC0007F11003184600F06BFD4C4B08221A6044
:1004BC004B4B08221A60464B01221A6001F01CF8C3
:1004CC00434B1B68022B2BD1464B1A6813469B00DF
:1004DC0013445B001A46444B1A60434B1A68434B57
:1004EC001B689A4205DD404B1A68414B1B689A42C7
:1004FC0007DC3E4B1A683E4B1B6813443A4A1360A8
:10050C0006E0394B1A683A4B1B68D31A374A13600A
:10051C00354B1B68374A1360344B1B68364A1360E3
:10052C002B4B1B68032B25D12E4B1A6813469B00B3
:10053C0013445B001A462D4B1A602B4B1A682B4B3D
:10054C001B689A4207DC2A4B1A68284B1B68134419
:10055C00254A136006E0244B1A68244B1B68D31AF7
:10056C00234A1360204B1B68224A13601F4B1B68E5
:10057C00214A1360164B1B68042B25D1194B1A68A2
:10058C0013469B0013445B001A46194B1A60164B1A
:10059C001A68174B1B689A4207DC154B1A68134BE9
:1005AC001B681344104A136006E00F4B1A68104B7B
:1005BC001B68D31A0D4A13600B4B1B680D4A136052
:1005CC000A4B1B680C4A136000BF2037BD4680BD28
:1005DC00D400002098490008A8490008C000002059
:1005EC00C4000020D80000200000002004000020DF
:1005FC0008000020C8000020CC00002080B500AF0F
:10060C00144B1B68012B02D1134B00221A60114BA7
:10061C001B68022B04D1114B05221A6000F06CFFF1
:10062C000C4B1B68032B07D10D4B00221A600B4B94
:10063C0006221A6000F060FF064B1B68042B07D1E2
:10064C00084B00221A60054B07221A6000F054FF79
:10065C0000BF80BDD4000020A8000020C0000020F6
:10066C00A0000020A400002080B500AF144B1B6834
:10067C00012B02D1134B00221A60114B1B68022B69
:10068C0004D1114B05221A6000F036FF0C4B1B688D
:10069C00032B07D10D4B00221A600B4B06221A605C
:1006AC0000F02AFF064B1B68042B07D1084B0022D5
:1006BC001A60054B07221A6000F01EFF00BF80BDB8
:1006CC00D4000020A8000020C4000020A0000020BE
:1006DC00A400002080B588B000AF214B1B68022B12
:1006EC0007D01F4B1B68032B03D01D4B1B68042B1F
:1006FC0031D11C4B1B68002B04DD1A4B1B68013BD2
:10070C00184A1360184B1B68002B04DD164B1B6832
:10071C00013B154A1360134B1A683B4613491846A4
:10072C0003F0EEFC104B1A6807F110031049184641
:10073C0003F0E6FC0021012000F037FC3B46184694
:10074C0000F01EFC0021022000F02FFC07F110032A
:10075C00184600F015FC00BF2037BD4680BD00BF19
:10076C00C0000020C8000020CC000020B4490008C4
:10077C00C449000880B588B000AF184B1B68052B26
:10078C0007D0164B1B68062B03D0144B1B68072B8A
:10079C001FD1134B1A6807F110031249184603F0C6
:1007AC00AFFC114B1A683B461049184603F0A8FCE5
:1007BC000021012000F0F9FB3B46184600F0E0FB5D
:1007CC000021022000F0F1FB07F11003184600F0A5
:1007DC00D7FB00BF2037BD4680BD00BFC000002046
:1007EC00D8000020D4490008D4000020E0490008BB
:1007FC0080B500AF1D4B1B68042B03D11C4B1B6831
:10080C00032B03DD1B4B1B68092B02D100F0B2FF3D
:10081C000DE0184B1B68022B07D0164B1B68082BDE
:10082C0003D0144B1B68092B01D100F037FF114B7F
:10083C001B68042B03D1104B1B68032B03DD0D4BE2
:10084C001B680B2B02D100F0B3FF0DE0074B1B68AC
:10085C00022B07D0074B1B680A2B03D0054B1B68D8
:10086C000B2B01D100F03EFF00BF80BDC400002067
:10087C00CC000020C0000020C800002080B500AFD4
:10088C00444B1B68013B032B72D801A252F823F096
:10089C00AD080008D108000809090008450900083E
:1008AC003C4B02221A603C4B1B683C4A13603B4B8E
:1008BC001B683B4A82FB03129210DB17D31A394A8E
:1008CC0013605CE000F0B2FDFFF7C6FDFFF796FE8B
:1008DC00324B1B68002B4DDC2E4B03221A60324B23
:1008EC001B682E4A13602D4B1B682D4A82FB03128A
:1008FC009210DB17D31A2B4A13603BE000F0B6FDC5
:10090C00FFF7AAFD00F0DCFEFFF778FE234B1B6817
:10091C00002B31DC1F4B04221A60244B1B681F4A2E
:10092C0013601E4B1B681E4A82FB03129210DB17CE
:10093C00D31A1C4A13601FE000F088FDFFF78CFDF2
:10094C00FFF75CFE154B1B68002B17DC114B0222CA
:10095C001A60114B1B68114A1360104B1B68104A2C
:10096C0082FB03129210DB17D31A0E4A136005E0B8
:10097C0000BF04E000BF02E000BF00E000BF074B77
:10098C001B68002B04DD054B1B68013B034A1360FD
:10099C0000BF80BDC000002000000020AC00002083
:1009AC0067666666C800002004000020080000206E
:1009BC0080B500AF454B1B68013B032B74D801A2DB
:1009CC0052F823F0E1090008090A0008410A00085E
:1009DC007D0A000800F07EFD3C4B03221A603C4B64
:1009EC001B683C4A13603B4B1B683B4A82FB03125F
:1009FC009210DB17D31A394A13605CE000F046FD05
:100A0C00FFF72AFDFFF730FE324B1B68002B4DDC45
:100A1C002E4B03221A602E4B1B682E4A13602D4B53
:100A2C001B682D4A82FB03129210DB17D31A2B4A38
:100A3C0013603BE000F04EFD00F066FEFFF70CFD8E
:100A4C00FFF712FE234B1B68002B31DC1F4B0422DB
:100A5C001A60234B1B681F4A13601E4B1B681E4AEF
:100A6C0082FB03129210DB17D31A1C4A13601FE08F
:100A7C0000F01EFDFFF7F0FCFFF7F6FD154B1B68B1
:100A8C00002B17DC114B02221A60164B1B68114A03
:100A9C001360104B1B68104A82FB03129210DB1779
:100AAC00D31A0E4A136005E000BF04E000BF02E059
:100ABC0000BF00E000BF074B1B68002B04DD054B9B
:100ACC001B68013B034A136000BF80BDC4000020BB
:100ADC0004000020B000002067666666CC00002091
:100AEC00080000200000002080B500AF314B1B68CF
:100AFC00072B30D0072B51DC052B02D0062B15D041
:100B0C004CE02D4B1B68002B04DC00F013FD2A4B32
:100B1C0005221A60294B1B68032B04D1254B062296
:100B2C001A6000F0E9FCFFF797FC38E0224B1B68D9
:100B3C00002B04DC00F03AFD1F4B05221A601F4B02
:100B4C001B68042B04D11B4B07221A6000F0D4FC49
:100B5C00FFF782FC23E0184B1B68002B04DC00F031
:100B6C0061FD154B05221A60144B1B68012B12D129
:100B7C00104B02221A60124B1B68124A82FB0312A2
:100B8C009210DB17D31A104A13600D4B1B680F4AD7
:100B9C00136000F0B1FCFFF75FFC00E000BF064BF8
:100BAC001B68002B04DD044B1B68013B024A1360DD
:100BBC0000BF80BDC0000020B4000020D400002085
:100BCC000000002067666666C8000020AC000020AC
:100BDC0080B500AF314B1B68072B2CD0072B4BDC9F
:100BEC00052B02D0062B13D046E02D4B1B68002B97
:100BFC0004DC00F0BDFC2A4B05221A60294B1B6853
:100C0C00032B3BD1254B06221A6000F075FC35E016
:100C1C00234B1B68002B04DC00F0E6FC204B052268
:100C2C001A60204B1B68042B2AD11C4B07221A601C
:100C3C0000F062FC24E01A4B1B68002B04DC00F073
:100C4C000FFD174B05221A60164B1B68012B19D18F
:100C5C00124B03221A60144B1B68144A82FB0312BA
:100C6C009210DB17D31A124A13600F4B1B68114AF0
:100C7C00136000F041FC05E000BF04E000BF02E09F
:100C8C0000BF00E000BF064B1B68002B04DD044BCB
:100C9C001B68013B024A136000BF80BDC4000020EA
:100CAC00B8000020D40000200400002067666666AF
:100CBC00CC000020B000002080B500AF00F0A8FAF6
:100CCC000346002B26D0144B01221A60134B022230
:100CDC001A60134B03221A6000F00EFC114B1B68B8
:100CEC00114A82FB03129210DB17D31A0F4A1360BE
:100CFC000C4B1B680E4A13600E4B1B680A4A82FB96
:100D0C0003129210DB17D31A0B4A1360094B1B68A2
:100D1C000A4A136000BF80BDD4000020C000002030
:100D2C00C40000200000002067666666C800002032
:100D3C00AC00002004000020CC000020B0000020FB
:100D4C0080B500AF444B1B68083B032B70D801A245
:100D5C0052F823F0710D00089F0D0008D70D000804
:100D6C00050E000800F062FB00F0B4FBFFF7A4FFD7
:100D7C0000F094FC00F0C8FC384B1B68022B59D1D6
:100D8C00354B09221A6000F0B7FB354B32221A6042
:100D9C0050E000F04BFB00F08BFBFFF78DFF2F4B6F
:100DAC001B68032B04D12C4B0A221A6000F0A4FB05
:100DBC002B4B1B68002B3FD1274B0A221A60274B69
:100DCC0003221A6000F098FB36E000F04FFB00F0B5
:100DDC005DFBFFF771FF00F073FC00F083FC1F4B11
:100DEC001B68042B2AD11C4B0B221A6000F084FBCD
:100DFC001B4B32221A6021E000F028FB00F046FB6E
:100E0C00FFF75AFF154B1B68012B04D1124B08221C
:100E1C001A6000F071FB124B1B68002B10D10E4BAB
:100E2C0008221A600D4B01221A6000F065FB07E0E6
:100E3C0000BF06E000BF04E000BF02E000BF00E01E
:100E4C0000BF074B1B68002B04DD054B1B68013BE7
:100E5C00034A136000BF80BDC0000020D4000020F6
:100E6C00BC00002080B586B002AF0346FB71FB7955
:100E7C0023F00F03FB73FB791B01BB73FB7B43F06C
:100E8C000C03DBB23B72FB7B43F00803DBB27B72DF
:100E9C00BB7B43F00C03DBB2BB72BB7B43F00803A0
:100EAC00DBB2FB7207F10802642300930423422196
:100EBC00034801F0BDFC00BF1037BD4680BD00BF2C
:100ECC003404002080B586B002AF0346FB71FB7979
:100EDC0023F00F03FB73FB791B01BB73FB7B43F00C
:100EEC000D03DBB23B72FB7B43F00903DBB27B727D
:100EFC00BB7B43F00D03DBB2BB72BB7B43F009033E
:100F0C00DBB2FB7207F10802642300930423422135
:100F1C00034801F08DFC00BF1037BD4680BD00BFFB
:100F2C003404002080B500AF3320FFF79BFF322044
:100F3C00FFF798FF322001F051F82820FFF792FFBD
:100F4C00322001F04BF80120FFF78CFF322001F02A
:100F5C0045F80620FFF786FF322001F03FF80C2001
:100F6C00FFF780FF322001F039F80220FFF77AFFFB
:100F7C00322001F033F88020FFF774FF00BF80BDF2
:100F8C0080B582B000AF786006E07B685A1C7A604E
:100F9C001B781846FFF796FF7B681B78002BF4D163
:100FAC0000BF00BF0837BD4680BD80B584B000AF20
:100FBC00786039607B68012B08D17B68DAB23B68BA
:100FCC00DBB21344DBB27F33FB7308E03B68DBB26C
:100FDC004033DBB25BB263F07F035BB2FB73FB7B32
:100FEC001846FFF73FFF00BF1037BD4680BD00001D
:100FFC0080B500AF264B1B78022B38D0022B45DC7A
:10100C00002B02D0012B1ED040E0002000F0DAF9BA
:10101C000346002B35D01E4B01221A7000F0DAF873
:10102C000346012B2DD11B4B1B680133194A13604E
:10103C00194B00221A60174B1B68042B21DD154B32
:10104C0001221A601DE0002000F0BCF90346002BC1
:10105C0003D10F4B00221A7015E0002000F0CCF9E0
:10106C000346012B0FD10A4B02221A700BE0002011
:10107C0000F0A8F90346002B07D1054B00221A708B
:10108C0003E000BF02E000BF00E000BF00BF80BD76
:10109C00D0000020D4000020D800002080B500AF84
:1010AC00254B1B78022B35D0022B42DC002B02D0B7
:1010BC00012B1BD03DE0012000F084F90346002BEE
:1010CC0032D01D4B01221A7000F0A2F80346012BFE
:1010DC002AD11A4B1B680133184A1360174B1B6833
:1010EC00632B21DD154B00221A601DE0012000F05E
:1010FC0069F90346002B03D10F4B00221A7015E03F
:10110C00012000F079F90346012B0FD10A4B022282
:10111C001A700BE0012000F055F90346002B07D1A3
:10112C00054B00221A7003E000BF02E000BF00E094
:10113C0000BF00BF80BD00BFD1000020D800002040
:10114C0080B500AF1C4B1B78022B24D0022B31DC5A
:10115C00002B02D0012B0AD02CE0022000F032F937
:10116C000346002B21D0144B01221A701DE00220E3
:10117C0000F028F90346002B03D10F4B00221A7004
:10118C0015E0022000F038F90346012B0FD10A4B71
:10119C0002221A700BE0022000F014F90346002B17
:1011AC0007D1054B00221A7003E000BF02E000BF1C
:1011BC0000E000BF00BF80BDD200002080B400AFB3
:1011CC00034B01221A6000BFBD4680BC704700BFB4
:1011DC00F400002080B400AF064B1B68012B04D137
:1011EC00044B00221A60012300E000231846BD4680
:1011FC0080BC7047F400002080B400AF034B012288
:10120C001A6000BFBD4680BC704700BFF8000020CC
:10121C0080B400AF064B1B68012B04D1044B002299
:10122C001A60012300E000231846BD4680BC7047BD
:10123C00F800002080B400AF034B01221A6000BFFD
:10124C00BD4680BC704700BFFC00002080B400AFDE
:10125C00064B1B68012B04D1044B00221A6001239E
:10126C0000E000231846BD4680BC7047FC000020FF
:10127C0080B582B000AF0023FB718CE0FA79FB796A
:10128C004949895C494AD154FB79002B08D1012189
:10129C00474801F059F903461A46434B1A7017E0B8
:1012AC00FB79012B08D10221414801F04DF903468D
:1012BC001A463D4B5A700BE0FB79022B08D14FF4C8
:1012CC0000513C4801F040F903461A46364B9A70DF
:1012DC00FB79354AD25CFB793449CB5C9A424ED1CE
:1012EC00FA79FB793049895C334AD154FB79324A1B
:1012FC00D35C002B4CD1FB79002B02D1FFF75EFFA6
:10130C000AE0FB79012B02D1FFF776FF04E0FB79B1
:10131C00022B01D1FFF78EFFFB79284A32F81330EC
:10132C00632B0ED8FB79264AD35C002B09D1FB79B1
:10133C00224A32F81320013291B2204A22F81310BB
:10134C0026E0FB791E4A0121D154FB791B4A32F865
:10135C0013307C2B09D8FB79184A32F81320013250
:10136C0091B2164A22F8131012E0FB79124A0121AD
:10137C00D154FB79114A642122F8131008E0FB794F
:10138C000E4A002122F81310FB790D4A0021D1548A
:10139C00FB790133FB71FB79022B7FF66FAF00BF3A
:1013AC0000BF0837BD4680BDE0000020E4000020EF
:1013BC000008014000100140DC000020EC0000207F
:1013CC00E800002080B483B000AF0346FB71FB79CA
:1013DC00022B01D9002307E0FB79064AD35C002BD2
:1013EC000CBF01230023DBB218460C37BD4680BC72
:1013FC00704700BFDC00002080B483B000AF034610
:10140C00FB71FB79022B01D9FF2307E0FB79064A1C
:10141C00D35C012B0CBF01230023DBB218460C3725
:10142C00BD4680BC704700BFE800002080B500AF0F
:10143C0001220821044801F09EF8012220210248D3
:10144C0001F099F800BF80BD000C014080B500AFE1
:10145C0000220821044801F08EF8012220210248C4
:10146C0001F089F800BF80BD000C014080B500AFD1
:10147C0001220821044801F07EF8002220210248B4
:10148C0001F079F800BF80BD000C014080B500AFC1
:10149C0001224FF48071054801F06DF801224FF4E0
:1014AC000071024801F067F800BF80BD00080140E0
:1014BC0080B500AF00224FF48071054801F05BF855
:1014CC0001224FF40071024801F055F800BF80BDB5
:1014DC000008014080B500AF01224FF4807105482F
:1014EC0001F049F800224FF40071024801F043F872
:1014FC0000BF80BD0008014080B500AF002208216C
:10150C000A4801F038F800222021084801F033F88D
:10151C0000224FF48071064801F02DF800224FF4A0
:10152C000071034801F027F800BF80BD000C01409A
:10153C000008014080B500AF0C4B1B68002B02D09B
:10154C00012B03D005E0FFF771FF02E0FFF7D4FF9A
:10155C0000BF064B1B68002B03D1044B01221A6001
:10156C0002E0024B00221A6000BF80BD0001002087
:10157C0080B500AF0C4B1B68002B02D0012B03D0A5
:10158C0005E0FFF783FF02E0FFF7B6FF00BF064B55
:10159C001B68002B03D1044B01221A6002E0024BA2
:1015AC0000221A6000BF80BD0401002080B500AF8E
:1015BC000C4B1B68002B02D0012B03D005E0FFF76E
:1015CC0055FF02E0FFF798FF00BF064B1B68002B8E
:1015DC0003D1044B01221A6002E0024B00221A6074
:1015EC0000BF80BD0001002080B500AF0C4B1B6814
:1015FC00002B02D0012B03D005E0FFF76BFF02E0BC
:10160C00FFF77AFF00BF064B1B68002B03D1044B7E
:10161C0001221A6002E0024B00221A6000BF80BD5A
:10162C000401002080B500AF0C4B1B68002B02D0CE
:10163C00012B03D005E0FFF709FF02E0FFF75CFF89
:10164C0000BF064B1B68002B03D1044B01221A6010
:10165C0002E0024B00221A6000BF80BD0001002096
:10166C0080B500AF0C4B1B68002B02D0012B03D0B4
:10167C0005E0FFF71DFF02E0FFF73EFF00BF064B42
:10168C001B68002B03D1044B01221A6002E0024BB1
:10169C0000221A6000BF80BD0401002080B500AF9D
:1016AC0001221021054800F066FF00224FF48061F2
:1016BC00024800F060FF00BF80BD00BF000C01407D
:1016CC0080B500AF01221021054800F054FF012223
:1016DC004FF48061024800F04EFF00BF80BD00BF98
:1016EC00000C014080B500AF01228021044800F0BD
:1016FC0042FF00224021034800F03DFF00BF80BDA7
:10170C0000100140000C014080B500AF0122802187
:10171C00044800F030FF01224021034800F02BFF69
:10172C0000BF80BD00100140000C014080B500AF2F
:10173C0000221021054800F01EFF00224FF48061AA
:10174C00024800F018FF00BF80BD00BF000C014034
:10175C0080B500AF00228021044800F00CFF00226D
:10176C004021034800F007FF00BF80BD001001407E
:10177C00000C014080B500AF0C4B1B68002B02D055
:10178C00012B03D005E0FFF789FF02E0FFF7CEFF46
:10179C0000BF064B1B68002B03D1044B01221A60BF
:1017AC0002E0024B00221A6000BF80BD0001002045
:1017BC0080B500AF0C4B1B68002B02D0012B03D063
:1017CC0005E0FFF78FFF02E0FFF7C2FF00BF064BFB
:1017DC001B68002B03D1044B01221A6002E0024B60
:1017EC0000221A6000BF80BD0401002080B500AF4C
:1017FC0000F092FB00F084F800F062F900F036F98A
:10180C0000F0E8F800F0B8F82A4801F0C7FFFFF73D
:10181C0089FBFEF7A1FC284B01221A60274B012201
:10182C001A60274B00221A60264B00221A60264BA6
:10183C0001221A60254B00221A60254B00221A60E7
:10184C000A2200212348FEF713FD0A220021224818
:10185C00FEF70EFD642264212048FEF709FD642288
:10186C0064211F48FEF704FD0A220A211D48FEF7D9
:10187C00FFFC0A220A211C48FEF7FAFC0A220A2164
:10188C001A48FEF7F5FC192200211948FEF7F0FC66
:10189C0001220A211748FEF7EBFC01220A21164807
:1018AC00FEF7E6FC01220A211448FEF7E1FCFEF7E4
:1018BC0031FDFCE788040020C0000020C40000209B
:1018CC00AC000020B0000020D4000020D800002084
:1018DC009C00002089080008BD090008E1060008EA
:1018EC0081070008F50A0008DD0B00084D0D000803
:1018FC00FD070008FD0F0008A91000084D11000895
:10190C0080B590B000AF07F11803282200211846CB
:10191C0002F0EEFB3B1D00221A605A609A60DA60FE
:10192C001A610223BB610123BB621023FB620023FB
:10193C007B6307F11803184601F0D2FA0346002B1B
:10194C0001D000F059F90F237B600023BB6000230A
:10195C00FB6000233B6100237B613B1D002118468B
:10196C0001F03EFD0346002B01D000F045F900BF0D
:10197C004037BD4680BD000080B500AF124B134A06
:10198C001A60114B124A5A600F4B00229A600E4B90
:10199C000022DA600C4B4FF480421A610A4B002291
:1019AC005A61094B00229A61074B0022DA61064BFF
:1019BC0000221A62044800F0F7FD0346002B01D008
:1019CC0000F01AF900BF80BD340400200054004020
:1019DC00A086010080B586B000AF07F10803002295
:1019EC001A605A609A60DA603B4600221A605A60AC
:1019FC001D4B4FF080421A601B4B41F63F725A60F0
:101A0C00194B00229A60184B0922DA60164B0022FF
:101A1C001A61154B00229A61134801F06FFE0346C0
:101A2C00002B01D000F0E8F84FF48053BB6007F1B5
:101A3C00080319460C4801F0F3FF0346002B01D0B4
:101A4C0000F0DAF800233B6000237B603B4619462C
:101A5C00054802F0D5F90346002B01D000F0CCF874
:101A6C0000BF1837BD4680BD8804002080B500AF8C
:101A7C00114B124A1A60104B4FF4E1325A600E4B64
:101A8C0000229A600C4B0022DA600B4B00221A6188
:101A9C00094B0C225A61084B00229A61064B00221A
:101AAC00DA61054802F01CFA0346002B01D000F065
:101ABC00A3F800BF80BD00BFD0040020004400404C
:101ACC0080B588B000AF07F1100300221A605A608D
:101ADC009A60DA60444B9B69434A43F0100393616C
:101AEC00414B9B6903F01003FB60FB683E4B9B6909
:101AFC003D4A43F0200393613B4B9B6903F0200369
:101B0C00BB60BB68384B9B69374A43F00403936155
:101B1C00354B9B6903F004037B607B68324B9B69FC
:101B2C00314A43F0080393612F4B9B6903F0080380
:101B3C003B603B6800224FF448712C4800F01BFDC1
:101B4C0000224FF48F612A4800F015FD00228021FD
:101B5C00284800F010FD4FF400533B6100237B61DB
:101B6C000023BB6107F110031946224800F068FB03
:101B7C0003233B6100237B610123BB6107F110034D
:101B8C0019461A4800F05CFB4FF448733B61012383
:101B9C007B610023BB610223FB6107F11003194633
:101BAC00124800F04DFB4FF48F633B6101237B61C6
:101BBC000023BB610223FB6107F1100319460C489B
:101BCC0000F03EFB80233B6101237B610023BB6162
:101BDC000223FB6107F110031946064800F030FBA5
:101BEC0000BF2037BD4680BD0010024000080140F8
:101BFC00000C01400010014080B400AF72B600BF71
:101C0C00FEE7000080B485B000AF154B9B69144A09
:101C1C0043F001039361124B9B6903F00103BB601A
:101C2C00BB680F4BDB690E4A43F08053D3610C4BFE
:101C3C00DB6903F080537B607B680A4B5B68FB605D
:101C4C00FB6823F0E063FB60FB6843F00073FB6010
:101C5C00044AFB68536000BF1437BD4680BC704714
:101C6C00001002400000014080B58AB000AF7860DF
:101C7C0007F1140300221A605A609A60DA607B68DC
:101C8C001B681D4A934232D11C4B9B691B4A43F083
:101C9C0008039361194B9B6903F008033B613B6993
:101CAC004FF440737B611223BB6103233B6207F14A
:101CBC0014031946124800F0C3FA124B5B687B629E
:101CCC007B6A43F0E0637B627B6A43F002037B62D6
:101CDC000C4A7B6A5360094BDB69084A43F40013D6
:101CEC00D361064BDB6903F40013FB60FB6800BF98
:101CFC002837BD4680BD00BF005400400010024094
:101D0C00000C01400000014080B584B000AF786049
:101D1C007B681B68B3F1804F13D10C4BDB690B4A0A
:101D2C0043F00103D361094BDB6903F00103FB6052
:101D3C00FB68002200211C2000F04BFA1C2000F054
:101D4C0064FA00BF1037BD4680BD00BF00100240D2
:101D5C0080B588B000AF786007F1100300221A60DC
:101D6C005A609A60DA607B681B68154A934223D1EB
:101D7C00144BDB69134A43F40033D361114BDB6919
:101D8C0003F40033FB60FB680E4B9B690D4A43F078
:101D9C00040393610B4B9B6903F00403BB60BB68AA
:101DAC000C233B6102237B610223FB6107F11003CF
:101DBC001946054800F044FA00BF2037BD4680BDE7
:101DCC0000440040001002400008014080B400AF05
:101DDC00FEE780B400AFFEE780B400AFFEE780B44E
:101DEC0000AFFEE780B400AFFEE780B400AF00BFE9
:101DFC00BD4680BC704780B400AF00BFBD4680BC00
:101E0C00704780B400AF00BFBD4680BC704780B542
:101E1C0000AF00F0C7F800BF80BD000080B500AF78
:101E2C00024801F00DFD00BF80BD00BF88040020FA
:101E3C0080B586B000AF7860144A154BD31A7B611D
:101E4C007B693B61134B1B68002B02D1114B124A6F
:101E5C001A60104B1A687B6813443A699A4207D28D
:101E6C0002F01CF903460C221A604FF0FF3309E014
:101E7C00084B1B68FB60074B1A687B681344054AC8
:101E8C001360FB6818461837BD4680BD0050002013
:101E9C0000040000080100203005002080B400AFD1
:101EAC0000BFBD4680BC704780B582B000AF786083
:101EBC007B681B68B3F1804F03D1FFF7D9F9FEF7AC
:101ECC0069F900BF0837BD4680BD0000FFF7E6FF8B
:101EDC000B480C490C4A002302E0D458C45004337C
:101EEC00C4188C42F9D3094A094C002301E0136051
:101EFC000432A242FBD302F0D7F8FFF777FC70470D
:101F0C00000000207C000020544A00087C000020C7
:101F1C002C050020FEE7000080B500AF084B1B68C5
:101F2C00074A43F010031360032000F047F9002028
:101F3C0000F008F8FFF766FE0023184680BD00BFCE
:101F4C000020024080B582B000AF7860124B1A6856
:101F5C00124B1B7819464FF47A73B3FBF1F3B2FBB7
:101F6C00F3F3184600F05FF90346002B01D0012370
:101F7C000EE07B680F2B0AD8002279684FF0FF30F7
:101F8C0000F027F9064A7B681360002300E0012368
:101F9C0018460837BD4680BD0C00002014000020F8
:101FAC001000002080B400AF054B1B781A46054B7F
:101FBC001B681344034A136000BFBD4680BC7047C6
:101FCC00140000201805002080B400AF024B1B68E1
:101FDC001846BD4680BC70471805002080B584B0FB
:101FEC0000AF7860FFF7F0FFB8607B68FB60FB68C0
:101FFC00B3F1FF3F05D00A4B1B781A46FB6813441C
:10200C00FB6000BFFFF7E0FF0246BB68D31AFA681B
:10201C009A42F7D800BF00BF1037BD4680BD00BF45
:10202C001400002080B485B000AF78607B6803F0AA
:10203C000703FB600C4BDB68BB60BA684FF6FF0311
:10204C001340BB60FB681A02BB68134343F0BF63C9
:10205C0043F40033BB60044ABB68D36000BF143741
:10206C00BD4680BC704700BF00ED00E080B400AFFF
:10207C00044BDB681B0A03F007031846BD4680BC03
:10208C00704700BF00ED00E080B483B000AF0346A2
:10209C00FB7197F90730002B0BDBFB7903F01F0268
:1020AC00064997F907305B09012000FA02F241F862
:1020BC00232000BF0C37BD4680BC704700E100E018
:1020CC0080B483B000AF03463960FB7197F90730D9
:1020DC00002B0ADB3B68DAB20C4997F90730120186
:1020EC00D2B20B4483F800230AE03B68DAB2084909
:1020FC00FB7903F00F03043B1201D2B20B441A76A6
:10210C0000BF0C37BD4680BC704700BF00E100E04B
:10211C0000ED00E080B489B000AFF860B9607A607F
:10212C00FB6803F00703FB61FB69C3F10703042B96
:10213C0028BF0423BB61FB690433062B02D9FB695E
:10214C00033B00E000237B614FF0FF32BB6902FAD6
:10215C0003F3DA43BB681A407B699A404FF0FF31B6
:10216C007B6901FA03F3D9437B680B401343184690
:10217C002437BD4680BC704780B582B000AF786014
:10218C007B68013BB3F1807F01D301230FE00A4A46
:10219C007B68013B53600F214FF0FF30FFF790FF3E
:1021AC00054B00229A60044B07221A600023184644
:1021BC000837BD4680BD00BF10E000E080B582B09E
:1021CC0000AF78607868FFF72DFF00BF0837BD4679
:1021DC0080BD80B586B000AF0346B9607A60FB73F2
:1021EC0000237B61FFF742FF78617A68B9687869F0
:1021FC00FFF790FF024697F90F3011461846FFF78C
:10220C005FFF00BF1837BD4680BD80B582B000AF00
:10221C000346FB7197F907301846FFF735FF00BFEF
:10222C000837BD4680BD80B582B000AF7860786855
:10223C00FFF7A2FF034618460837BD4680BD0000D5
:10224C0080B48BB000AF7860396000237B620023D0
:10225C003B6269E101227B6A02FA03F3FB613B6892
:10226C001B68FA691340BB61BA69FB699A4240F07A
:10227C0058813B685B689A4A93425ED0984A934275
:10228C0075D8984A934258D0964A93426FD8964A3A
:10229C00934252D0944A934269D8944A93424CD078
:1022AC00924A934263D8924A934246D0904A9342C0
:1022BC005DD8122B2AD8122B59D801A252F823F030
:1022CC004723000821230008332300087523000846
:1022DC007B2300087B2300087B2300087B2300085A
:1022EC007B2300087B2300087B2300087B2300084A
:1022FC007B2300087B2300087B2300087B2300083A
:10230C007B230008292300083D230008794A9342C7
:10231C0013D02CE03B68DB683B6229E03B68DB6850
:10232C0004333B6224E03B68DB6808333B621FE00C
:10233C003B68DB680C333B621AE03B689B68002B04
:10234C0002D104233B6213E03B689B68012B05D14F
:10235C0008233B627B68FA691A6109E008233B6237
:10236C007B68FA695A6103E000233B6200E000BF1E
:10237C00BB69FF2B01D87B6801E07B6804337B6170
:10238C00BB69FF2B02D87B6A9B0002E07B6A083B8F
:10239C009B003B617B691A680F213B6901FA03F3CF
:1023AC00DB431A40396A3B6901FA03F31A437B6930
:1023BC001A603B685B6803F08053002B00F0B1801F
:1023CC004D4B9B694C4A43F0010393614A4B9B690B
:1023DC0003F00103BB60BB68484A7B6A9B0802336D
:1023EC0052F82330FB607B6A03F003039B000F223F
:1023FC0002FA03F3DB43FA681340FB607B68404A44
:10240C00934213D07B683F4A93420DD07B683E4A7F
:10241C00934207D07B683D4A934201D1032306E0E7
:10242C00042304E0022302E0012300E000237A6A83
:10243C0002F0030292009340FA681343FB602F49A9
:10244C007B6A9B080233FA6841F823203B685B687F
:10245C0003F48013002B06D02D4B9A682C49BB69D2
:10246C0013438B6006E02A4B9A68BB69DB4328490F
:10247C0013408B603B685B6803F40013002B06D0A1
:10248C00234BDA682249BB691343CB6006E0204B2F
:10249C00DA68BB69DB431E491340CB603B685B6861
:1024AC0003F40033002B06D0194B5A681849BB694A
:1024BC0013434B6006E0164B5A68BB69DB43144967
:1024CC0013404B603B685B6803F48033002B21D0D6
:1024DC000F4B1A680E49BB6913430B6021E000BF18
:1024EC0000003210000031100000221000002110FA
:1024FC0000001210000011100010024000000140FA
:10250C0000080140000C0140001001400014014083
:10251C00000401400B4B1A68BB69DB4309491340AB
:10252C000B607B6A01337B623B681A687B6A22FA18
:10253C0003F3002B7FF48EAE00BF00BF2C37BD46DB
:10254C0080BC70470004014080B485B000AF786057
:10255C000B467B807B689A687B881340002B02D0EB
:10256C000123FB7301E00023FB73FB7B184614373C
:10257C00BD4680BC704780B483B000AF78600B461A
:10258C007B8013467B707B78002B03D07A887B682A
:10259C001A6103E07B881A047B681A6100BF0C3750
:1025AC00BD4680BC7047000080B584B000AF786039
:1025BC007B68002B01D101232BE17B6893F83D3024
:1025CC00DBB2002B06D17B68002283F83C207868B4
:1025DC00FFF74AFB7B68242283F83D207B681B684D
:1025EC001A687B681B6822F001021A607B681B6802
:1025FC001A687B681B6842F400421A607B681B688F
:10260C001A687B681B6822F400421A6001F030F8EB
:10261C00F8607B685B68814A934207D8FB68804A04
:10262C00934294BF01230023DBB206E0FB687D4A92
:10263C00934294BF01230023DBB2002B01D0012372
:10264C00E7E0FB68784AA2FB03239B0CBB607B682A
:10265C001B685B6823F03F017B681B68BA680A4300
:10266C005A607B681B681B6A23F03F017B685B68C0
:10267C006A4A934202D8BB68013309E0BB684FF445
:10268C00967202FB03F3694AA2FB03239B090133F5
:10269C007A6812680B4313627B681B68DB6923F44E
:1026AC004F4222F0FF027B685B685C498B4219D871
:1026BC00FB68591E7B685B685B00B1FBF3F3591C2C
:1026CC0040F6FC730B40002B0AD0FB68591E7B684C
:1026DC005B685B00B1FBF3F30133C3F30B0351E015
:1026EC0004234FE07B689B68002B11D1FB68581EBC
:1026FC007B6859680B465B000B44B0FBF3F301336A
:10270C00C3F30B03002B0CBF01230023DBB212E03D
:10271C00FB68581E7B6859680B469B000B4499005C
:10272C000B44B0FBF3F30133C3F30B03002B0CBFCF
:10273C0001230023DBB2002B01D0012322E07B68B4
:10274C009B68002B0ED1FB68581E7B6859680B46A2
:10275C005B000B44B0FBF3F30133C3F30B0343F403
:10276C0000430FE0FB68581E7B6859680B469B00C2
:10277C000B4499000B44B0FBF3F30133C3F30B038D
:10278C0043F44043796809681343CB617B681B6849
:10279C001B6823F0C0017B68DA697B681B6A1A43EB
:1027AC007B681B680A431A607B681B689B6823F470
:1027BC00034323F0FF037A6811697A68D2681143E6
:1027CC007A6812680B4393607B681B68DB6823F0A4
:1027DC00FF017B685A697B689B691A437B681B689D
:1027EC000A43DA607B681B681A687B681B6842F0D6
:1027FC0001021A607B6800221A647B68202283F82D
:10280C003D207B6800221A637B68002283F83E20FF
:10281C00002318461037BD4680BD00BFA0860100BE
:10282C007F841E00FF083D0083DE1B43D34D6210E6
:10283C0080B588B002AFF8607A601A460B467B818F
:10284C0013463B81FFF7C0FB7861FB6893F83D3082
:10285C00DBB2202B40F0E0807B690093192301222E
:10286C007049F86800F064F90346002B01D002238C
:10287C00D3E0FB6893F83C30012B01D10223CCE070
:10288C00FB68012283F83C20FB681B681B6803F083
:10289C000103012B07D0FB681B681A68FB681B68D7
:1028AC0042F001021A60FB681B681A68FB681B681F
:1028BC0022F400621A60FB68212283F83D20FB6839
:1028CC00102283F83E20FB6800221A64FB687A68A9
:1028DC005A62FB683A895A85FB685B8D9AB2FB6831
:1028EC001A85FB68504ADA6279897B693A6AF8681A
:1028FC0000F09CF80346002B01D001238DE000234F
:10290C003B61FB681B685B693B61FB681B689B69EF
:10291C003B613B6966E07A69396AF86800F022FA33
:10292C000346002B0DD0FB681B6C042B07D1FB68F6
:10293C001B681A68FB681B6842F400721A6001235A
:10294C006BE0FB685B6A1A78FB681B681A61FB68B2
:10295C005B6A5A1CFB685A62FB685B8D9BB2013B3D
:10296C009AB2FB685A85FB681B8D013B9AB2FB68D7
:10297C001A85FB681B685B6903F00403042B1BD1ED
:10298C00FB681B8D002B17D0FB685B6A1A78FB6801
:10299C001B681A61FB685B6A5A1CFB685A62FB680D
:1029AC005B8D9BB2013B9AB2FB685A85FB681B8D11
:1029BC00013B9AB2FB681A857A69396AF86800F0AB
:1029CC0019FA0346002B0DD0FB681B6C042B07D1A6
:1029DC00FB681B681A68FB681B6842F400721A607B
:1029EC0001231AE0FB681B8D002B94D1FB681B683C
:1029FC001A68FB681B6842F400721A60FB6820229C
:102A0C0083F83D20FB68002283F83E20FB680022FF
:102A1C0083F83C20002300E0022318461837BD46FB
:102A2C0080BD00BF020010000000FFFF80B588B021
:102A3C0002AFF8607A603B600B467B81FB68DB6A17
:102A4C007B617B69082B06D07B69012B03D07B69EA
:102A5C0013F5803F08D1FB681B681A68FB681B687C
:102A6C0042F480721A600BE0FB681B6B122B07D1CF
:102A7C00FB681B681A68FB681B6842F480721A605A
:102A8C003B6800937B6800224FF00111F86800F05E
:102A9C004FF80346002B0DD0FB681B681B6803F432
:102AAC008073B3F5807F03D1FB684FF400721A6416
:102ABC00032335E0FB681B69B3F5804F08D17B8994
:102ACC00DBB21A46FB681B6802F0FE021A611BE0BF
:102ADC007B89DB11DBB203F00603DBB263F00F037F
:102AEC00DAB2FB681B681A613B687A680E49F868B1
:102AFC0000F098F80346002B01D0012310E07B89ED
:102B0C00DAB2FB681B681A613B687A680749F86897
:102B1C0000F088F80346002B01D0012300E00023CD
:102B2C0018461837BD4680BD0800010002000100A0
:102B3C0080B584B000AFF860B9603B601346FB71A0
:102B4C0048E03B68B3F1FF3F44D0FFF73DFA024643
:102B5C00BB69D31A3A689A4202D33B68002B39D12D
:102B6C00BB681B0CDBB2012B0DD1FB681B685B69CE
:102B7C00DA43BB6813409BB2002B0CBF012300232C
:102B8C00DBB21A460CE0FB681B689B69DA43BB6836
:102B9C0013409BB2002B0CBF01230023DBB21A465F
:102BAC00FB799A4216D1FB6800221A63FB6820223B
:102BBC0083F83D20FB68002283F83E20FB681B6CE9
:102BCC0043F02002FB681A64FB68002283F83C2067
:102BDC00012323E0BB681B0CDBB2012B0DD1FB687E
:102BEC001B685B69DA43BB6813409BB2002B0CBFBC
:102BFC0001230023DBB21A460CE0FB681B689B69BF
:102C0C00DA43BB6813409BB2002B0CBF012300239B
:102C1C00DBB21A46FB799A4293D000231846103740
:102C2C00BD4680BD80B584B000AFF860B9607A60F5
:102C3C003B6071E0FB681B685B6903F48063B3F570
:102C4C00806F23D1FB681B681A68FB681B6842F411
:102C5C0000721A60FB681B686FF480625A61FB6833
:102C6C0000221A63FB68202283F83D20FB680022B7
:102C7C0083F83E20FB681B6C43F00402FB681A646B
:102C8C00FB68002283F83C20012367E07B68B3F1EA
:102C9C00FF3F41D0FFF798F902463B68D31A7A6898
:102CAC009A4202D37B68002B36D1BB681B0CDBB27B
:102CBC00012B0CD1FB681B685B69DA43BB681340C2
:102CCC009BB2002B14BF01230023DBB20BE0FB688B
:102CDC001B689B69DA43BB6813409BB2002B14BF83
:102CEC0001230023DBB2002B16D0FB6800221A63F1
:102CFC00FB68202283F83D20FB68002283F83E20ED
:102D0C00FB681B6C43F02002FB681A64FB68002212
:102D1C0083F83C20012321E0BB681B0CDBB2012BA8
:102D2C000CD1FB681B685B69DA43BB6813409BB230
:102D3C00002B14BF01230023DBB20BE0FB681B68E4
:102D4C009B69DA43BB6813409BB2002B14BF012371
:102D5C000023DBB2002B7FF46DAF00231846103735
:102D6C00BD4680BD80B584B000AFF860B9607A60B4
:102D7C0034E0F86800F086F80346002B01D00123FC
:102D8C0034E0BB68B3F1FF3F28D0FFF71DF90246D2
:102D9C007B68D31ABA689A4202D3BB68002B1DD148
:102DAC00FB681B685B6903F08003802B16D0FB6803
:102DBC0000221A63FB68202283F83D20FB68002266
:102DCC0083F83E20FB681B6C43F02002FB681A64FE
:102DDC00FB68002283F83C20012307E0FB681B689A
:102DEC005B6903F08003802BC3D100231846103796
:102DFC00BD4680BD80B584B000AFF860B9607A6024
:102E0C0034E0F86800F03EF80346002B01D00123B3
:102E1C0034E0BB68B3F1FF3F28D0FFF7D5F802468A
:102E2C007B68D31ABA689A4202D3BB68002B1DD1B7
:102E3C00FB681B685B6903F00403042B16D0FB686A
:102E4C0000221A63FB68202283F83D20FB680022D5
:102E5C0083F83E20FB681B6C43F02002FB681A646D
:102E6C00FB68002283F83C20012307E0FB681B6809
:102E7C005B6903F00403042BC3D1002318461037FD
:102E8C00BD4680BD80B483B000AF78607B681B68A2
:102E9C005B6903F48063B3F5806F1BD17B681B689F
:102EAC006FF480625A617B6800221A637B6820226F
:102EBC0083F83D207B68002283F83E207B681B6CE6
:102ECC0043F004027B681A647B68002283F83C2080
:102EDC00012300E0002318460C37BD4680BC704728
:102EEC0080B586B000AF78607B68002B01D10123E0
:102EFC006CE27B681B6803F00103002B00F08780F9
:102F0C00924B5B6803F00C03042B0CD08F4B5B686B
:102F1C0003F00C03082B12D18C4B5B6803F4803349
:102F2C00B3F5803F0BD1894B1B6803F40033002BA6
:102F3C006CD07B685B68002B68D1012346E27B6810
:102F4C005B68B3F5803F06D1804B1B687F4A43F426
:102F5C00803313602EE07B685B68002B0CD17B4BBD
:102F6C001B687A4A23F480331360784B1B68774ACA
:102F7C0023F4802313601DE07B685B68B3F5A02FFE
:102F8C000CD1724B1B68714A43F4802313606F4B56
:102F9C001B686E4A43F4803313600BE06B4B1B6869
:102FAC006A4A23F480331360684B1B68674A23F426
:102FBC00802313607B685B68002B13D0FFF704F849
:102FCC00386108E0FFF700F802463B69D31A642B1E
:102FDC0001D90323FAE15D4B1B6803F40033002B8A
:102FEC00F0D014E0FEF7F0FF386108E0FEF7ECFFDC
:102FFC0002463B69D31A642B01D90323E6E1534BF8
:10300C001B6803F40033002BF0D100E000BF7B6899
:10301C001B6803F00203002B63D04C4B5B6803F07E
:10302C000C03002B0BD0494B5B6803F00C03082BF3
:10303C001CD1464B5B6803F48033002B16D1434BF9
:10304C001B6803F00203002B05D07B681B69012B66
:10305C0001D00123BAE13D4B1B6823F0F8027B68D9
:10306C005B69DB00394913430B603AE07B681B69F1
:10307C00002B20D0364B01221A60FEF7A5FF3861D9
:10308C0008E0FEF7A1FF02463B69D31A022B01D9D7
:10309C0003239BE12D4B1B6803F00203002BF0D0A4
:1030AC002A4B1B6823F0F8027B685B69DB0027491D
:1030BC0013430B6015E0264B00221A60FEF784FFC9
:1030CC00386108E0FEF780FF02463B69D31A022BF9
:1030DC0001D903237AE11D4B1B6803F00203002B7B
:1030EC00F0D17B681B6803F00803002B3AD07B6897
:1030FC009B69002B19D0174B01221A60FEF764FF55
:10310C00386108E0FEF760FF02463B69D31A022BD8
:10311C0001D903235AE10D4B5B6A03F00203002B28
:10312C00F0D0012000F0CCFA1CE00A4B00221A600F
:10313C00FEF74AFF38610FE0FEF746FF02463B6997
:10314C00D31A022B08D9032340E100BF0010024020
:10315C0000004242800442429E4B5B6A03F0020331
:10316C00002BE9D17B681B6803F00403002B00F0F3
:10317C00A6800023FB75974BDB6903F08053002B73
:10318C000DD1944BDB69934A43F08053D361914B3F
:10319C00DB6903F08053BB60BB680123FB758E4B6E
:1031AC001B6803F48073002B18D18B4B1B688A4A65
:1031BC0043F480731360FEF707FF386108E0FEF7F5
:1031CC0003FF02463B69D31A642B01D90323FDE0AC
:1031DC00814B1B6803F48073002BF0D07B68DB6899
:1031EC00012B06D17B4B1B6A7A4A43F00103136215
:1031FC002DE07B68DB68002B0CD1764B1B6A754A83
:10320C0023F001031362734B1B6A724A23F004030D
:10321C0013621CE07B68DB68052B0CD16D4B1B6AC1
:10322C006C4A43F0040313626A4B1B6A694A43F00D
:10323C00010313620BE0674B1B6A664A23F0010320
:10324C001362644B1B6A634A23F0040313627B68AA
:10325C00DB68002B15D0FEF7B7FE38610AE0FEF7ED
:10326C00B3FE02463B69D31A41F28832934201D92C
:10327C000323ABE0574B1B6A03F00203002BEED089
:10328C0014E0FEF7A1FE38610AE0FEF79DFE02464F
:10329C003B69D31A41F28832934201D9032395E05A
:1032AC004C4B1B6A03F00203002BEED1FB7D012B70
:1032BC0005D1484BDB69474A23F08053D3617B68C7
:1032CC00DB69002B00F08180424B5B6803F00C0340
:1032DC00082B61D07B68DB69022B46D13F4B002267
:1032EC001A60FEF771FE386108E0FEF76DFE0246CB
:1032FC003B69D31A022B01D9032367E0354B1B68BA
:10330C0003F00073002BF0D17B681B6AB3F5803F90
:10331C0008D1304B5B6823F400327B689B682D49E5
:10332C0013434B602B4B5B6823F474127B68196A54
:10333C007B685B6A0B43274913434B60274B012285
:10334C001A60FEF741FE386108E0FEF73DFE0246CA
:10335C003B69D31A022B01D9032337E01D4B1B68A1
:10336C0003F00073002BF0D02FE01C4B00221A60EE
:10337C00FEF72AFE386108E0FEF726FE02463B699E
:10338C00D31A022B01D9032320E0124B1B6803F044
:10339C000073002BF0D118E07B68DB69012B01D1A5
:1033AC00012313E00B4B5B68FB60FB6803F480327A
:1033BC007B681B6A9A4206D1FB6803F470127B6827
:1033CC005B6A9A4201D0012300E0002318461837AB
:1033DC00BD4680BD001002400070004060004242BB
:1033EC0080B584B000AF786039607B68002B01D168
:1033FC000123D0E06A4B1B6803F007033A689A423A
:10340C0010D9674B1B6823F0070265493B681343CF
:10341C000B60634B1B6803F007033A689A4201D0B8
:10342C000123B8E07B681B6803F00203002B20D05B
:10343C007B681B6803F00403002B05D0594B5B68B9
:10344C00584A43F4E06353607B681B6803F008033D
:10345C00002B05D0534B5B68524A43F460535360C6
:10346C00504B5B6823F0F0027B689B684D4913431B
:10347C004B607B681B6803F00103002B40D07B681A
:10348C005B68012B07D1474B1B6803F40033002BFF
:10349C0015D101237FE07B685B68022B07D1414B80
:1034AC001B6803F00073002B09D1012373E03D4B23
:1034BC001B6803F00203002B01D101236BE0394B95
:1034CC005B6823F003027B685B68364913434B60EF
:1034DC00FEF77AFDF8600AE0FEF776FD0246FB681F
:1034EC00D31A41F28832934201D9032353E02D4B76
:1034FC005B6803F00C027B685B689B009A42EBD123
:10350C00274B1B6803F007033A689A4210D2244BEE
:10351C001B6823F0070222493B6813430B60204BC6
:10352C001B6803F007033A689A4201D0012332E08A
:10353C007B681B6803F00403002B08D0194B5B68F5
:10354C0023F4E0627B68DB68164913434B607B68AD
:10355C001B6803F00803002B09D0124B5B6823F4A3
:10356C0060527B681B69DB000E4913434B6000F013
:10357C0021F802460B4B5B681B0903F00F030A4949
:10358C00CB5C22FA03F3094A1360094B1B681846FB
:10359C00FEF7D8FC002318461037BD4680BD00BF8F
:1035AC000020024000100240EC4900080C000020F2
:1035BC001000002080B487B000AF0023FB60002314
:1035CC00BB6000237B6100237B6000233B611E4BAF
:1035DC005B68FB60FB6803F00C03042B02D0082B28
:1035EC0003D027E0194B3B6127E0FB689B0C03F0F1
:1035FC000F03174AD35C7B60FB6803F48033002B0A
:10360C0010D0114B5B685B0C03F00103114AD35CC7
:10361C00BB607B680D4A02FB03F2BB68B2FBF3F3A1
:10362C007B6104E07B680C4A02FB03F37B617B69E2
:10363C003B6102E0054B3B6100BF3B6918461C3700
:10364C00BD4680BC704700BF0010024000127A00DB
:10365C00044A0008144A000800093D0080B400AF79
:10366C00024B1B681846BD4680BC70470C000020FE
:10367C0080B500AFFFF7F2FF0246054B5B681B0AF3
:10368C0003F007030349CB5C22FA03F3184680BD11
:10369C0000100240FC49000880B500AFFFF7DEFFC8
:1036AC000246054B5B68DB0A03F007030349CB5C5E
:1036BC0022FA03F3184680BD00100240FC490008B2
:1036CC0080B485B000AF78600A4B1B680A4AA2FB35
:1036DC0003235B0A7A6802FB03F3FB6000BFFB6801
:1036EC005A1EFA60002BF9D100BF00BF1437BD463B
:1036FC0080BC70470C000020D34D621080B582B0A6
:10370C0000AF78607B68002B01D1012341E07B681E
:10371C0093F83D30DBB2002B06D17B68002283F896
:10372C003C207868FEF7F0FA7B68022283F83D2093
:10373C007B681A687B6804331946104600F05CFA03
:10374C007B68012283F846207B68012283F83E20A7
:10375C007B68012283F83F207B68012283F840209C
:10376C007B68012283F841207B68012283F8422088
:10377C007B68012283F843207B68012283F8442074
:10378C007B68012283F845207B68012283F83D2069
:10379C00002318460837BD4680BD000080B485B0B4
:1037AC0000AF78607B6893F83D30DBB2012B01D021
:1037BC0001233AE07B68022283F83D207B681B687A
:1037CC00DA687B681B6842F00102DA607B681B6870
:1037DC00184A93420ED07B681B68B3F1804F09D016
:1037EC007B681B68144A934204D07B681B68134A9D
:1037FC00934211D17B681B689B6803F00703FB6045
:10380C00FB68062B10D07B681B681A687B681B68EA
:10381C0042F001021A6007E07B681B681A687B683B
:10382C001B6842F001021A60002318461437BD468B
:10383C0080BC7047002C0140000400400008004090
:10384C0080B584B000AF78607B681B68DB68FB6078
:10385C007B681B681B69BB60BB6803F00203002B11
:10386C0020D0FB6803F00203002B1BD07B681B6885
:10387C006FF002021A617B6801221A777B681B6861
:10388C009B6903F00303002B03D0786800F098F9D0
:10389C0005E0786800F08BF9786800F09AF97B689D
:1038AC0000221A77BB6803F00403002B20D0FB68BE
:1038BC0003F00403002B1BD07B681B686FF0040221
:1038CC001A617B6802221A777B681B689B6903F478
:1038DC004073002B03D0786800F072F905E078682B
:1038EC0000F065F9786800F074F97B6800221A77AB
:1038FC00BB6803F00803002B20D0FB6803F008031F
:10390C00002B1BD07B681B686FF008021A617B6868
:10391C0004221A777B681B68DB6903F00303002B16
:10392C0003D0786800F04CF905E0786800F03FF9B6
:10393C00786800F04EF97B6800221A77BB6803F0B8
:10394C001003002B20D0FB6803F01003002B1BD0BE
:10395C007B681B686FF010021A617B6808221A776B
:10396C007B681B68DB6903F44073002B03D0786819
:10397C0000F026F905E0786800F019F9786800F095
:10398C0028F97B6800221A77BB6803F00103002B2F
:10399C000CD0FB6803F00103002B07D07B681B687D
:1039AC006FF001021A617868FEF77EFABB6803F0CB
:1039BC008003002B0CD0FB6803F08003002B07D096
:1039CC007B681B686FF080021A61786800F07FFAE0
:1039DC00BB6803F04003002B0CD0FB6803F04003E2
:1039EC00002B07D07B681B686FF040021A61786867
:1039FC0000F0F8F8BB6803F02003002B0CD0FB6838
:103A0C0003F02003002B07D07B681B686FF02002AB
:103A1C001A61786800F052FA00BF1037BD4680BDBD
:103A2C0080B584B000AF786039600023FB737B688D
:103A3C0093F83C30012B01D10223B4E07B680122C6
:103A4C0083F83C207B68022283F83D207B681B684E
:103A5C009B68BB60BB6823F07703BB60BB6823F437
:103A6C007F43BB607B681B68BA689A603B681B68C5
:103A7C00B3F5005F3ED0B3F5005F00F28780B3F57D
:103A8C00805F00F08680B3F5805F7FD8702B1AD0F2
:103A9C00702B7BD8602B50D0602B77D8502B3CD020
:103AAC00502B73D8402B58D0402B6FD8302B64D070
:103ABC00302B6BD8202B60D0202B67D8002B5CD000
:103ACC00102B5AD062E07B6818683B6899683B6899
:103ADC005A683B68DB6800F074F97B681B689B686C
:103AEC00BB60BB6843F07703BB607B681B68BA683C
:103AFC009A604FE07B6818683B6899683B685A6825
:103B0C003B68DB6800F05DF97B681B689A687B6832
:103B1C001B6842F480429A603CE07B6818683B6802
:103B2C0059683B68DB681A4600F0D4F87B681B6860
:103B3C005021184600F02BF92CE07B6818683B6884
:103B4C0059683B68DB681A4600F0F2F87B681B6822
:103B5C006021184600F01BF91CE07B6818683B6874
:103B6C0059683B68DB681A4600F0B4F87B681B6840
:103B7C004021184600F00BF90CE07B681A683B6892
:103B8C001B681946104600F002F903E00123FB7391
:103B9C0000E000BF7B68012283F83D207B68002297
:103BAC0083F83C20FB7B18461037BD4680BD80B4A3
:103BBC0083B000AF786000BF0C37BD4680BC704747
:103BCC0080B483B000AF786000BF0C37BD4680BCBA
:103BDC00704780B483B000AF786000BF0C37BD462F
:103BEC0080BC704780B483B000AF786000BF0C37E6
:103BFC00BD4680BC7047000080B485B000AF7860D3
:103C0C0039607B681B68FB607B682F4A93420BD042
:103C1C007B68B3F1804F07D07B682C4A934203D06A
:103C2C007B682B4A934208D1FB6823F07003FB603E
:103C3C003B685B68FA681343FB607B68224A9342DB
:103C4C000BD07B68B3F1804F07D07B681F4A93423F
:103C5C0003D07B681E4A934208D1FB6823F440735F
:103C6C00FB603B68DB68FA681343FB60FB6823F07E
:103C7C0080023B685B691343FB607B68FA681A60DF
:103C8C003B689A687B68DA623B681A687B689A6260
:103C9C007B680D4A934203D13B681A697B681A63AF
:103CAC007B6801225A617B681B6903F00103002BBE
:103CBC0005D07B681B6923F001027B681A6100BF89
:103CCC001437BD4680BC7047002C014000040040F6
:103CDC000008004080B487B000AFF860B9607A602B
:103CEC00FB681B6A7B61FB681B6A23F00102FB68A3
:103CFC001A62FB689B693B613B6923F0F0033B61F3
:103D0C007B681B013A6913433B617B6923F00A030F
:103D1C007B617A69BB6813437B61FB683A699A6182
:103D2C00FB687A691A6200BF1C37BD4680BC7047BD
:103D3C0080B487B000AFF860B9607A60FB681B6A2A
:103D4C007B61FB681B6A23F01002FB681A62FB683C
:103D5C009B693B613B6923F470433B617B681B03AC
:103D6C003A6913433B617B6923F0A0037B61BB6819
:103D7C001B017A6913437B61FB683A699A61FB68A2
:103D8C007A691A6200BF1C37BD4680BC704780B48C
:103D9C0085B000AF786039607B689B68FB60FB681E
:103DAC0023F07003FB603A68FB68134343F007038E
:103DBC00FB607B68FA689A6000BF1437BD4680BC14
:103DCC00704780B487B000AFF860B9607A603B6030
:103DDC00FB689B687B617B6923F47F437B613B6859
:103DEC001A027B681A43BB6813437A6913437B61DD
:103DFC00FB687A699A6000BF1C37BD4680BC70476F
:103E0C0080B485B000AF786039607B6893F83C3043
:103E1C00012B01D1022346E07B68012283F83C2070
:103E2C007B68022283F83D207B681B685B68FB6023
:103E3C007B681B689B68BB60FB6823F07003FB60AE
:103E4C003B681B68FA681343FB607B681B68FA6865
:103E5C005A607B681B68164A93420ED07B681B68BD
:103E6C00B3F1804F09D07B681B68124A934204D08F
:103E7C007B681B68104A93420CD1BB6823F080030B
:103E8C00BB603B685B68BA681343BB607B681B68AC
:103E9C00BA689A607B68012283F83D207B68002217
:103EAC0083F83C20002318461437BD4680BC70476D
:103EBC00002C0140000400400008004080B483B096
:103ECC0000AF786000BF0C37BD4680BC704780B433
:103EDC0083B000AF786000BF0C37BD4680BC704724
:103EEC0080B582B000AF78607B68002B01D10123D4
:103EFC0042E07B6893F84130DBB2002B06D17B6843
:103F0C00002283F840207868FDF722FF7B6824228A
:103F1C0083F841207B681B68DA687B681B6822F495
:103F2C000052DA60786800F02BF87B681B681A691D
:103F3C007B681B6822F490421A617B681B685A6983
:103F4C007B681B6822F02A025A617B681B68DA685E
:103F5C007B681B6842F40052DA607B6800225A646A
:103F6C007B68202283F841207B68202283F8422042
:103F7C007B6800225A63002318460837BD4680BD73
:103F8C0080B584B000AF78607B681B681B6923F434
:103F9C0040517B68DA687B681B680A431A617B684E
:103FAC009A687B681B691A437B685B691343BB6027
:103FBC007B681B68DB6823F4B05323F00C037A682E
:103FCC001268B9680B43D3607B681B685B6923F488
:103FDC0040717B689A697B681B680A435A617B68ED
:103FEC001B682C4A934203D1FFF756FBF86002E0A2
:103FFC00FFF73EFBF860FA6813469B0013449A00E7
:10400C001A447B685B689B00B2FBF3F3224AA2FB69
:10401C0003235B091901FA6813469B0013449A00A9
:10402C001A447B685B689B00B2FBF3F21A4BA3FB50
:10403C0002035B09642000FB03F3D31A1B01323328
:10404C00154AA2FB03235B0903F0F0031944FA6839
:10405C0013469B0013449A001A447B685B689B00D0
:10406C00B2FBF3F20C4BA3FB02035B09642000FBD5
:10407C0003F3D31A1B013233074AA2FB03235B0958
:10408C0003F00F027B681B680A449A6000BF10376C
:10409C00BD4680BD003801401F85EB51014B1868AF
:1040AC00704700BF1800002070B500260C4D0D4C59
:1040BC00641BA410A64209D100F05CFC00260A4D3A
:1040CC000A4C641BA410A64205D170BD55F8043BE4
:1040DC0098470136EEE755F8043B98470136F2E76E
:1040EC004C4A00084C4A00084C4A0008504A000848
:1040FC0003460244934200D1704703F8011BF9E7D1
:10410C000EB46FF0004100B59CB01DAB0290069050
:10411C00079104910848094953F8042B059100684C
:10412C0002A9019300F068F80022029B1A701CB0DF
:10413C005DF804EB03B07047180000200802FFFF85
:10414C002DE9F0478E6882469E420C4690461F46EB
:10415C0038D88A8912F4906F32D0256809690133F6
:10416C00A5EB010965694B4405EB450505EBD575D8
:10417C006D109D4238BF1D46530531D5294600F0C0
:10418C0053FB064650B90C234FF0FF30CAF80030F1
:10419C00A38943F04003A381BDE8F0874A46216917
:1041AC0000F0CEFAA38923F4906343F08003A3813B
:1041BC0026614E4426603E466561A5EB0905A56067
:1041CC00BE4200D93E4632464146206800F0C6FA4F
:1041DC00A36822689B1B32440020A3602260DBE7AB
:1041EC002A4600F07BFB06460028E1D150462169A7
:1041FC0000F0CEFAC7E700002DE9F04F98468B8906
:10420C0007461B060D4614469DB00ED50B6963B9C7
:10421C00402100F009FB2860286120B90C233B6089
:10422C004FF0FF30D1E040236B6100230993202332
:10423C008DF8293030234FF00109CDF80C80DFF8D0
:10424C00A4818DF82A3023469A4613F8012B0AB123
:10425C00252AF9D1BAEB040B0BD05B462246294632
:10426C003846FFF76DFF013000F0AA80099A5A44D6
:10427C0009929AF80030002B00F0A28000234FF036
:10428C00FF32CDE905230AF1010A049307938DF857
:10429C0053301A935446052214F8011B514800F070
:1042AC0041FA049AD8B9D00644BF20238DF8533074
:1042BC00110744BF2B238DF853309AF800302A2B6A
:1042CC0015D0544600204FF00A0C079A214611F8DD
:1042DC00013B303B092B4ED9B0B1079214E0A0EB57
:1042EC00080309FA03F31343A2460493D2E7039B92
:1042FC00191D1B680391002BBBBF5B4242F00202ED
:10430C0007930793B8BF049223782E2B0CD16378B4
:10431C002A2B35D1039B02341A1D1B680392002BE8
:10432C00B8BF4FF0FF330593DFF8C8A00322504607
:10433C00217800F0F7F940B14023A0EB0A0003FA12
:10434C0000F0049B01340343049314F8011B062270
:10435C0025488DF8281000F0E5F9002838D0234BBB
:10436C001BBB039B073323F0070308330393099B01
:10437C003344099367E70C4601200CFB0232A5E796
:10438C0000234FF00A0C194601340593204610F80F
:10439C00012B303A092A03D9002BC5D00591C3E76C
:1043AC00044601230CFB0121F0E703AB00932A46E2
:1043BC0038460F4B04A9AFF30080421C0646D6D1F9
:1043CC00AB895B063FF52CAF09981DB0BDE8F08FAB
:1043DC0003AB00932A463846054B04A900F07CF841
:1043EC00EBE700BF164A0008204A00080000000056
:1043FC004D4100081C4A00082DE9F0471646994625
:10440C008A680B6907469342B8BF1346336091F82C
:10441C0043200C46DDF820800AB101333360236859
:10442C00990642BF336802333360256815F00605E0
:10443C0006D104F1190AE36832689B1AAB4228DCF6
:10444C0094F84320131E226818BF012392062DD422
:10445C004946384604F14302C047013020D0236856
:10446C00E56803F00603042B18BF002532684FF0F3
:10447C000006A36808BFAD1A226908BF25EAE575D6
:10448C009342C4BF9B1AED181A34B5421AD10020BE
:10449C0008E00123524649463846C047013003D153
:1044AC004FF0FF30BDE8F0870135C4E73020E1184C
:1044BC0081F843005A1C94F845102244023382F8C8
:1044CC004310C5E70123224649463846C047013010
:1044DC00E6D00136D9E700002DE9FF470C46277ED0
:1044EC009146782F80469A460C9904F1430207D8DE
:1044FC00622F0AD8002F00F0D980582F00F0A4802A
:10450C0004F1420684F842703AE0A7F16303152BDC
:10451C00F6D801A050F823F07D450008914500081D
:10452C000D4500080D4500080D4500080D45000817
:10453C00914500080D4500080D4500080D45000883
:10454C000D4500089F460008C1450008814600083B
:10455C000D4500080D450008C14600080D45000832
:10456C00C14500080D4500080D45000889460008A6
:10457C000B6804F142061A1D1B680A6084F842306D
:10458C000123A4E0256808682E0600F104030AD56F
:10459C0005680B60002D03DA2D236D4284F843303F
:1045AC000A235E4819E015F0400F05680B6018BF30
:1045BC002DB2EFE70B682568181D0860280601D599
:1045CC001D6802E06906FBD51D886F2F0CBF082300
:1045DC000A235248002184F843106668002EA8BFB5
:1045EC002168A660A4BF21F0040121600DB9002E42
:1045FC004DD01646B5FBF3F103FB1157C75D06F81A
:10460C00017D2F46BB420D46F4D9082B0BD12368F4
:10461C00DF0708D5236961689942DEBF302306F8AD
:10462C00013C06F1FF36921B22614B462146404667
:10463C00CDF800A003AAFFF7DFFE01304CD14FF0FC
:10464C00FF3004B0BDE8F087344884F845700E683C
:10465C00236856F8045B1F060E6014D5D90744BFB7
:10466C0043F0200323601DB9236823F0200323604B
:10467C001023AFE7236843F02003236078232848F6
:10468C0084F84530E3E75E0648BFADB2E6E7164670
:10469C00BBE70B6826681D1D60690D6035061B683D
:1046AC0001D5186002E07106FBD518800023164670
:1046BC002361BAE70B681A1D0A601E680021304698
:1046CC00626800F02FF808B1801B6060636823619A
:1046DC00002384F84330A8E7324649464046236914
:1046EC00D0470130ABD023689B0713D4E068039B01
:1046FC009842B8BF1846A4E70123324649464046C3
:10470C00D04701309BD00135E36803995B1AAB426B
:10471C00F2DCEBE7002504F11906F5E7274A00085F
:10472C00384A0008034610B5C9B2024493421846F1
:10473C0001D1002003E0047801338C42F6D110BD86
:10474C000A44914200F1FF3300D1704710B511F8C3
:10475C00014B914203F8014FF9D110BD884210B5BD
:10476C0001EB020402D98442234607D8431EA1421E
:10477C0008D011F8012B03F8012FF8E70146024489
:10478C008A4200D110BD13F8014D02F8014DF7E734
:10479C0038B50546002943D051F8043C0C1F002BBA
:1047AC00B8BFE41800F0D0F81E4A1368104633B9AD
:1047BC00636014602846BDE8384000F0CBB8A342D3
:1047CC000AD921686218934201BF1A685B685218B3
:1047DC00226063600460EDE71A465B680BB1A3428C
:1047EC00FAD911685018A0420BD120680144501816
:1047FC0083421160DED118685B680144116053601C
:10480C00D8E702D90C232B60D4E7206821188B42FF
:10481C0001BF19685B680918216063605460C9E7BF
:10482C0038BD00BF0C010020F8B5CD1C25F00305E8
:10483C0008350C2D38BF0C25002D064601DBA9428E
:10484C0003D90C2333600020F8BD00F07DF821491A
:10485C000A6814469CB9204F3B6823B92146304660
:10486C0000F062F838602946304600F05DF8431CD1
:10487C0023D10C233046336000F06CF8E3E7236857
:10488C005B1B17D40B2B03D923601C44256004E05D
:10489C006368A2420CBF0B605360304600F05AF8BC
:1048AC0004F10B00231D20F00700C21ACCD01B1AF8
:1048BC00A350C9E722466468CCE7C41C24F0030467
:1048CC00A042E3D0211A304600F02EF80130DDD1A1
:1048DC00CFE700BF0C01002010010020F8B50746FF
:1048EC0014460E4621B91146BDE8F840FFF79CBFAF
:1048FC0022B9FFF74DFF25462846F8BD00F030F8E9
:10490C00A0420FD221463846FFF78EFF05460028FD
:10491C00F2D031462246FFF713FF31463846FFF7F7
:10492C0037FFE9E73546E7E738B50023054D044680
:10493C0008462B60FDF77CFA431C02D12B6803B1AF
:10494C00236038BD1C050020014800F011B800BFE1
:10495C0024050020014800F00CB800BF24050020FD
:10496C0051F8043C181F002BBCBF0B58C0187047E3
:10497C0070477047F8B500BFF8BC08BC9E4670473E
:0C498C00F8B500BFF8BC08BC9E467047A0
:1049980020204D616E75616C204D6F6465200000AC
:1049A800202020202020202020200000526F616439
:1049B80020583A202564202020200000526F61648E
:1049C80020593A20256420202020000054696D6574
:1049D8003A202020256420004D6F64653A2020206D
:1049E800256420000000000000000000010203040C
:1049F8000607080900000000010203040203040579
:104A0800060708090A0B0C0D0E0F10100102232DC2
:104A1800302B2000686C4C006566674546470030BF
:104A2800313233343536373839414243444546000C
:104A3800303132333435363738396162636465660C
:044A4800000000006A
:044A4C00310100082C
:044A50000D0100084C
:104A5400320000001E0000001400000000127A0062
:104A640010000000010000001C00002000000000F5
:104A74000000000000000000000000000000000032
:104A84000000000000000000000000000000000022
:104A94000000000000000000000000000000000012
:104AA4000000000000000000000000000000000002
:104AB40000000000000000000000000000000000F2
:0C4AC400000000000000000000000000E6
:0400000508001ED9F8
:00000001FF
